:100000000C94B4050C94FB050C94FB050C94FB05B7
:100010000C94FB050C94FB050C94FB050C94FB0560
:100020000C94FB050C94FB050C94A6260C947927E4
:100030000C947D1D0C94FB050C94FB050C94FB05A6
:100040000C94FB050C94FB050C94FB050C94FB0530
:100050000C94FB050C94E51D0C94FB050C94FB051E
:100060000C94FB050C94FB050C94FB050C94FB0510
:100070000C94FB050C94FB050C94FB050C94FB0500
:100080000C94FB050C94FB050C94FB050C94FB05F0
:100090000C94FB050C94FB050C94FB050C94FB05E0
:1000A0000C94FB050C94FB050C94FB05010000016E
:1000B0000014001A000800150017001C0018000C9E
:1000C00000120013002F0030002A000100E000049D
:1000D000001600070009000A000B000D000E000FBB
:1000E000003300340028000100E1001D001B000661
:1000F000001900050011001000360037003800E537
:1001000000025101002B00E300E20000002C41003E
:10011000002C410000E60003510000000000000137
:10012000001E021F022002210222022302240225B5
:1001300002260227022D002E002A00010001001EC7
:10014000001F00200021002200230024002500269B
:10015000002700350001000100010001000100013D
:10016000002C0001002C0001000100010031000101
:100170000001000100290001000100000001000051
:10018000000100000001000100000000000000016B
:100190000001000100010001000100010001004A0E
:1001A000004D005200010001004C0001000100A8B8
:1001B00000AA00A90001000100010001004B00504D
:1001C000004F000100010001000100AE00AC00ABD7
:1001D0000001000100010001004E0051000100017A
:1001E0000001000100010001000100000001000009
:1001F00000010000000100010000000000000000FC
:10020000703A003B003C003D003E003F0040004192
:100210000042004300440045000100010039003461
:1002200070367038703A7032703170010001000120
:100230000001000100010001000100357037703934
:10024000703B70337030700100010001000100014B
:100250000001000100010001000100000001000098
:10026000000100000001000100000000000000018A
:100270000001000100010001000100010001000176
:100280000001000100010001000100010001000166
:100290000001000100010001000100010001000156
:1002A0000001000100010001000100010001000146
:1002B0000001000100010001000100010001000136
:1002C0000001000100010001000100000001000028
:1002D000000100000001000100000000000000011A
:1002E0000001000100010001000100010001000106
:1002F00000010001000100010001000100010001F6
:1003000000010001000100010001000100010001E5
:1003100000010001000100010001000100010001D5
:1003200000010001000100010001000100010001C5
:1003300000010001000100010001000000010000B7
:1003400000010000000100010000000000000001A9
:100350000001000100010001000100010001000195
:100360000001000100010001000100010001000185
:100370000001000100010001000100010001000175
:100380000001000100010001000100010001000165
:100390000001000100010001000100010001000155
:1003A0000001000100010001000100000001000047
:1003B0000001000000010001000000000000000139
:1003C0000001000100010001000100010001000125
:1003D0000001000100010001000100010001000115
:1003E0000001000100010001000100010001000105
:1003F00000010001000100010001000100010001F5
:1004000000010001000100010001000100010001E4
:1004100000010001000100010001000000010000D6
:1004200000010000000100010000000000000001C8
:1004300000010001000100010001000100010001B4
:1004400000010001000100010001000100010001A4
:100450000001000100010001000100010001000194
:100460000001000100010001000100010001000184
:100470000001000100010001000100010001000174
:100480000001000100010001000100000001000066
:100490000001000000010001000000000000000158
:1004A0000001000100010001000100010001000144
:1004B0000001000100010001000100010001000134
:1004C0000001000100010001000100010001000124
:1004D0000001000100010001000100010001000114
:1004E0000001000100010001000100010001000104
:1004F00000010001000100010001000000010000F6
:1005000000010000000100010000000000000001E7
:1005100000010001000100010001000100010001D3
:1005200000010001000100010001000100010001C3
:1005300000010001000100010001000100010001B3
:1005400000010001000100010001000100010001A3
:100550000001000100010001000100010001000193
:100560000001000100010001000100000001000085
:100570000001000000010001000000000000000177
:100580000001000100010001000100010001000163
:100590000001000100010001000100010001000153
:1005A0000001000100010001000100010001000143
:1005B0000001000100010001000100010001000133
:1005C0000001000100010001000100010001000123
:1005D0000001000100010001000100000001000015
:1005E0000001000000010001000000000000000107
:1005F00000010001000100010001000100010001F3
:1006000000010001000100010001000100010001E2
:1006100000010001000100010001000100010001D2
:1006200000010001000100010001000100010001C2
:1006300000010001000100010001000100010001B2
:1006400000010001000100010001000000010000A4
:100650000001000000010001000000000000000196
:100660000001000100010001000100010001000182
:100670000001000100010001000100010001000172
:100680000001000100010001000100010001000162
:100690000001000100010001000100010001000152
:1006A0000001000100010001000100010001000142
:1006B0000001000100010001000100000001000034
:1006C0000001000000010001000000000000000126
:1006D0000001000100010001000100010001000112
:1006E0000001000100010001000100010001000102
:1006F00000010001000100010001000100010001F2
:1007000000010001000100010001000100010001E1
:1007100000010001000100010001000100010001D1
:1007200000010001000100010001000000010000C3
:1007300000010000000100010000000000000001B5
:1007400000010001000100010001000100010001A1
:100750000001000100010001000100010001000191
:100760000001000100010001000100010001000181
:100770000001000100010001000100010001000171
:100780000001000100010001000100010001000161
:100790000001000100010001000100000001000053
:1007A00000010000000100010000000000000064E2
:1007B0003214643214783C1E1E140A050000000036
:1007C0000101010202030405050607090A0B0C0ECC
:1007D0000F1112141517191B1D1F212325282A2C50
:1007E0002F313436393B3E414346494C4F525558E0
:1007F0005A5D6164676A6D707376797C7F838689E0
:100800008C8F9295989B9EA2A5A7AAADB0B3B6B9BE
:10081000BCBEC1C4C6C9CBCED0D3D5D7DADCDEE0EE
:10082000E2E4E6E8EAEBEDEEF0F1F3F4F5F6F8F9E0
:10083000FAFAFBFCFDFDFEFEFEFFFFFFFFFFFFFFE0
:10084000FEFEFEFDFDFCFBFAFAF9F8F6F5F4F3F115
:10085000F0EEEDEBEAE8E6E4E2E0DEDCDAD7D5D371
:10086000D0CECBC9C6C4C1BEBCB9B6B3B0ADAAA7C1
:10087000A5A29E9B9895928F8C898683807C7976A1
:1008800073706D6A6764615D5A5855524F4C4946A2
:1008900043413E3B393634312F2C2A282523211F52
:1008A0001D1B1917151412110F0E0C0B0A09070640
:1008B0000505040302020101010000000000000020
:1008C0000001010101010101010102020202020213
:1008D00002020203030303030303030404040404E6
:1008E00004050505050506060606060707070708A9
:1008F0000808080909090A0A0A0A0B0B0B0C0C0C58
:100900000D0D0D0E0E0F0F0F1010111111121213ED
:10091000131414151516161717181819191A1A1B67
:100920001C1C1D1D1E1F1F202021222223242525C3
:1009300026272728292A2B2B2C2D2E2F2F303132FA
:1009400033343536363738393A3B3C3D3E3F40410B
:10095000424344464748494A4B4C4D4F50515253ED
:10096000555657585A5B5C5E5F60626364666769A0
:100970006A6C6D6E707173747678797B7C7E808121
:10098000838486888A8B8D8F91929496989A9B9D6A
:100990009FA1A3A5A7A9ABADAFB1B3B5B7B9BBBD77
:1009A000BFC1C4C6C8CACCCFD1D3D6D8DADCDFE148
:1009B000E4E6E8EBEDF0F2F5F7FAFCFF12036B006A
:1009C0006500790062006F00610072006400000041
:1009D000160371006D006B006200750069006C0009
:1009E00064006500720000000403090409026D0040
:1009F000040100A0FA09040000010301010009211B
:100A0000110100012240000705810308000A0904C2
:100A100001000103010200092111010001224D0022
:100A20000705820308000A09040200010300000010
:100A30000921110100012236000705830308000A7D
:100A40000904030001030000000921110100012233
:100A50003900070584032000011201100100000085
:100A600008EDFE606001000102000105010906A118
:100A700001050719E029E715002501950875018191
:100A80000205081901290595057501910295017561
:100A90000391010507190029F71500250195F8753F
:100AA000018102C005010980A1018502160100260D
:100AB00003001A81002A8300751095018100C0058A
:100AC0000C0901A1018503160100269C021A0100F0
:100AD0002A9C02751095018100C005010902A1013F
:100AE0000901A10005091901290515002501950530
:100AF00075018102950175038101050109300931F4
:100B00001581257F95027508810609381581257F95
:100B1000950175088106050C0A38021581257F9517
:100B20000175088106C0C005010906A10105071964
:100B3000E029E715002501950875018102950175E9
:100B4000088101050819012905950575019102958E
:100B500001750391010507190029FF150026FF0003
:100B6000950675088100C00011241FBECFEFDAE0A2
:100B7000DEBFCDBF04B603FE27C080917502909101
:100B80007602A0917702B09178028730904BA7400F
:100B9000B04BD1F410927502109276021092770247
:100BA0001092780214BE84B7877F84BF0FB6F89482
:100BB000A895809160008861809360001092600029
:100BC0000FBEE0E0F8E3099511E0A0E0B1E0EEE946
:100BD000F5E502C005900D92AA33B107D9F722E0DE
:100BE000AAE3B1E001C01D92A537B207E1F70E9468
:100BF000F3230C94CD2A0C940000611107C0FC0172
:100C00008281882319F08CEA90E0089590E080E0DA
:100C100008950895089581E00895089581E0089564
:100C20000C940B060E94DC152FEF84E39CE021500E
:100C300080409040E1F700C000000C940A1EFF9233
:100C40000F931F93CF93DF938C01FC01C081D1815F
:100C500080918501811148C08281882309F43FC0B9
:100C6000CE010E94431BF82E682FCE010E94E91A84
:100C7000BE018F2D0E940008EC01B8010E941006F1
:100C8000882309F478C0B801CE010E94300A882375
:100C900009F471C0C633F0E7DF0709F484C0C0F57A
:100CA000C53190E7D90728F5C230E0E7DE0708F044
:100CB00099C0C115F0E7DF0709F458C0C130D0472B
:100CC00009F460C081E080933C0180933D01C8013C
:100CD000DF91CF911F910F91FF900C940E06CE01E2
:100CE0000E94181BF82EC4CFCE010E94431BBE01E8
:100CF000C1CFC43390E7D90709F44EC0C533D047FC
:100D000009F7F80182818823B1F10E94430E33C0B4
:100D1000CA33F0E7DF0709F457C070F4F8018281A5
:100D2000C833F0E7DF0709F44AC008F443C088235A
:100D300011F10E94870D1FC0CC33E0E7DE0709F4F4
:100D4000D5C008F448C0CD33D04709F0BBCFF80177
:100D50008281882309F4F1C010923D010E94AF1DE9
:100D600090933B0180933A0180E2CDC0F8018281EB
:100D700081110E94120680E0DF91CF911F910F91A7
:100D8000FF900895F80182818823A9F380910E02D3
:100D9000816080930E02EFCFF8018281882359F39E
:100DA0000E944D0EE8CFF8018281882321F30E9432
:100DB000380DE1CF8823F9F20E94500DDCCF882353
:100DC000D1F20E946F0DD7CFF8018281882399F26A
:100DD0000E949F0DD0CFF8018281882361F20E948A
:100DE000B70DC9CFF8018281882309F470CF0E9422
:100DF000001D811102C00E94DA1C0E941D1D90E09E
:100E00009093660280936502FE01E350F047809163
:100E100065028160E231F105C8F4EF5EF84F0C9491
:100E20007F2A23072F07330737073B073F0743076F
:100E300047074B074F07530757075B075F076307D2
:100E400067076B076F078091650282608093650278
:100E5000809165020E94211D0E94DC158CCF80913B
:100E600065028460F3CF809165028860EFCF809146
:100E700065028061EBCF809165028062E7CF80914F
:100E800065028064E3CF809165028068DFCF809146
:100E900065028460EACF809165028E7FD7CF809112
:100EA00065028D7FD3CF809165028B7FCFCF8091FC
:100EB0006502877FCBCF809165028F7EC7CF8091FF
:100EC00065028F7DC3CF809165028F7BBFCF8091FC
:100ED00065028F77BBCF809165028B7FEACF9091BF
:100EE0006502892F97FB87F98058B0CFF80182817E
:100EF000882361F010923C010E94AF1D90933B014A
:100F000080933A0182E00E94461335CF80913C01E4
:100F100081110FC080913A0190913B010E94BB1D4D
:100F2000883C910530F486E20E941B1286E20E9402
:100F3000F71282E00E944D131ECF80913D01811176
:100F40000FC080913A0190913B010E94BB1D883CEB
:100F5000910530F487E20E941B1287E20E94F7128B
:100F600080E2E8CF0C94810A279A2F988FEF9FEFA9
:100F700090938700809386008AE08093800089E1C7
:100F8000809381000C94A8210E94B4070C947F0ADE
:100F90002F9881110AC080918000877F8093800004
:100FA00010928D0010928C000895853061F480912C
:100FB00080008860809380008FEF9FEF90938D007A
:100FC00080938C00089590918000986090938000A9
:100FD00025E030E0A901481B5109CA019A01220FFE
:100FE000331F280F391F8FEF9FEF02C0969587950B
:100FF0002A95E2F7E3CF0C940D060C94FB070895B5
:10100000972F70E02EE0929F600D711D1124FB015F
:1010100098E3899FE00DF11D1124EE0FFF1FE155AC
:10102000FF4F859194910895FC01EE0FFF1FE1554C
:10103000F84F8591949108950E9400080E94AF098D
:10104000811520E5920708F040C0811530E4930730
:1010500008F0FAC0883E910518F5803E910508F029
:101060007DC1883A910580F4853A910508F087C0E2
:101070008130910509F472C120F08430910508F0A7
:101080006DC190E080E008958D3B910508F482C029
:10109000803C9105B0F3805C91090E94140808958A
:1010A000811540E2940750F4811521E0920708F081
:1010B00055C1803F910528F390650895811530E36F
:1010C000930708F0BEC09F70E8CF811545E59407EF
:1010D00060F5811524E5920708F0E5C0811532E539
:1010E000930750F4811541E5940708F4B0C0982F98
:1010F0008827816F906A0895282F26952695AC0140
:10110000437055278115934508F0BEC081E090E0FB
:1011100002C0880F991F4A95E2F740E2249F900190
:101120001124822B932B9C680895803340E7940709
:1011300098F4803220E7920708F0BFC0811536E5A9
:10114000930708F4B5C09C0130569F7021153041BB
:1011500008F097CF90620895813320E7920709F451
:10116000B3C008F4AEC0823340E7940709F4AFC0BF
:101170008333904709F085CF80E093ED0895853A59
:10118000910509F4A7C0863A910509F0A6C082E846
:1011900090E40895883A910509F4A2C0893A91052E
:1011A00009F4A1C08A3A910509F4A0C08B3A9105CF
:1011B00009F49FC08C3A910509F49EC08B3B9105C0
:1011C00009F49DC08C3B910509F49CC08D3A9105B2
:1011D00009F49BC0803B910509F49AC08E3A9105B1
:1011E00009F499C08F3A910509F498C0813B9105A3
:1011F00009F497C0823B910509F496C0833B9105A1
:1012000009F495C0843B910509F494C0853B910590
:1012100009F493C0863B910509F492C0873B910580
:1012200009F491C0883B910509F490C0893B910570
:1012300009F48FC08A3B910509F48EC080E094E4E4
:1012400008959927906C08959F70906A08959C0165
:1012500054E0369527955A95E1F7922F9370482FD1
:10126000437021E030E002C0220F331F4A95E2F7BD
:101270003C68392B86958695837040E2849FC00137
:101280001124822B932B089581E090E002C0880FF7
:10129000991F4A95E2F740E2249F90011124822B86
:1012A000932B9A680895982F8827846F906A0895E1
:1012B000982F882788279F714DCF80529047946D33
:1012C000089580E091ED089580E090ED089580E02C
:1012D00092ED089581E890E4089583E890E40895FC
:1012E00082EE94E4089589EE94E408958AEE94E4FD
:1012F000089585EB94E4089586EB94E4089583EBD8
:1013000094E4089584EB94E4089587EB94E40895BD
:101310008CEC94E408958DEC94E4089583E895E4CE
:1013200008958AE895E4089582E995E4089584E9AA
:1013300095E4089581E296E4089583E296E40895A1
:1013400084E296E4089585E296E4089586E296E4C0
:10135000089587E296E408958AE296E40895823833
:10136000910549F1B0F48133910509F45CC048F46A
:101370008932910509F452C08A32910509F458C0A6
:1013800008958533910509F444C08933910599F096
:101390000895833E910531F138F4803E910591F036
:1013A000823E9105B1F00895863E910511F1873E88
:1013B000910541F10895209165022370C9F080EEF6
:1013C00090E008952091650220FF12C089E390E02B
:1013D00008952091650222FF0BC024FF2EC090E0EB
:1013E00080E008952091650222FD2AC024FDF7CFF8
:1013F00008952091650223FFFBCF24FDF0CF87EEF7
:1014000090E008952091650223FFF0CF86EE90E0F2
:1014100008952091650225FD16C00895209165026A
:1014200025FD14C008952091650226FD12C008957F
:101430002091650226FD10C0089583EE90E0089586
:1014400082EE90E0089589E290E0089585E390E0CF
:1014500008958AE290E0089581E390E0C9CF08956D
:101460000F931F93CF938C01FB018281811106C0E2
:10147000C1E08C2FCF911F910F910895C0914B0126
:10148000C11125C00531104799F70E942F0A81E04C
:1014900080934B010E94AF1D90934A0180934901B4
:1014A00010923E011092400110923F0110924201B1
:1014B0001092410110924401109243011092460192
:1014C000109245011092480110924701D2CF8091AD
:1014D000490190914A010E94BB1D883C910540F64C
:1014E00080913E01E82FF0E0EE0FFF1FE15CFE4F20
:1014F000118300838F5F80933E01C0E0BACF0C94CC
:1015000009060C940A06CF93DF9385B7806885BFE0
:1015100085B7806885BFA2E2B1E046E251E0C1E054
:10152000D0E08D91E82FE295EF70F0E061A18F702F
:101530009E0101C0220F8A95EAF7922F909596237B
:1015400091A382A1822B82A34A175B0751F7A4E1E2
:10155000B1E042E251E0C1E0D0E08D91E82FE295A8
:10156000EF70F0E061A18F709E0101C0220F8A959B
:10157000EAF7922F9095962391A382A1822B82A3C2
:101580004A175B0751F710925501109254011092BF
:101590004D0110924C011092570110925601109279
:1015A0004F0110924E011092590110925801109261
:1015B00051011092500110925B0110925A01109249
:1015C000530110925201DF91CF910C94C4074F92B6
:1015D0005F927F928F929F92AF92BF92CF92DF9253
:1015E000EF92FF920F931F93CF93DF93CCE4D1E060
:1015F00002E211E096E2A92E91E0B92EEE24E394E6
:10160000F12C99249394C880D98019821882D8012A
:101610008D918D01E82FE295EF70F0E091A18F7030
:10162000970101C0220F8A95EAF7892F822B81A3A7
:1016300082A1822E8094882182A3B0EABA95F1F724
:1016400084E1482E81E0582E90E080E0D2017D9127
:101650002D01472F42954F7050E0DA0190967C9013
:10166000488159817F70D70102C0AA0FBB1F7A95AC
:10167000E2F7BD01672109F068C0B701082E02C07A
:10168000660F771F0A94E2F7462B572B598348833E
:1016900001968E309105D1F681A1882281A282A186
:1016A000282B22A388819981C816D90641F09092EF
:1016B0005C010E94AF1D90935E0180935D012296B4
:1016C000A016B10609F09FCF80915C01882351F1EB
:1016D00080915D0190915E010E94BB1D069710F103
:1016E00080914C0190914D0190935501809354014C
:1016F00080914E0190914F01909357018093560134
:10170000809150019091510190935901809358011B
:10171000809152019091530190935B0180935A0103
:1017200010925C010E94B20781E0DF91CF911F917E
:101730000F91FF90EF90DF90CF90BF90AF909F9070
:101740008F907F905F904F90089570E060E09CCF05
:10175000E82FF0E0EE0FFF1FEC5AFE4F80819181E1
:101760000895089538B1242F2095232338B1432BB1
:101770003FB7F894FC01680F791FE617F70711F4DB
:101780003FBF0895819198E048B9000000C087FFED
:1017900028B9880F000000C000C000C028B900C0F0
:1017A0009A9591F7EACF27B1242B27B99B01220FF5
:1017B000331F620F731F0E94B20B87EC90E00197FA
:1017C000F1F700C00000089540E80C94D30BCF92CD
:1017D000DF92EF92FF920F931F93CF93DF93E90174
:1017E000662309F466C0E42EF12CEFEFF0E0E61B6F
:1017F000F109EE9D8001EF9D100DFE9D100D11244D
:10180000212FE12FFF27EE1AFF0A5CE3C52ED12C12
:10181000B6010E94572AFB01BC01E69EC001E79E6B
:10182000900DF69E900D1124B6010E94572AE230C9
:10183000F10589F168F4812F262F210F309781F06F
:10184000242F461B319761F080E020E040E008C083
:10185000E430F10551F128F1842F861B3597A1F76B
:10186000E42FF0E0E454F74F4491E22FF0E0E45429
:10187000F74F9491E82FF0E0E454F74FE491498357
:101880009883EA83DF91CF911F910F91FF90EF90A2
:10189000DF90CF900895862F810FE42F412F2E2FB8
:1018A000DFCFE42FE61B842FF9CF842F462F410F83
:1018B000D7CF842F242FD4CF88E090E00C948D2AAA
:1018C000AB01BC0188E090E00C94AB2AEBE3F2E0C2
:1018D00083E0808310923C028FEF82838383609148
:1018E0003B0270913C0280913D0290913E020C942B
:1018F000600C80913B02E3E4F2E080FF06C06AE006
:1019000070E083E492E00C94E40B11821082128266
:10191000339682E0E136F807C1F7F1CFE3E4F2E075
:10192000818360834283339692E0E136F907C1F701
:101930000C94790CEF92FF920F931F93CF93DF9348
:1019400000D01F92CDB7DEB7182FE92EF62E042F48
:1019500080913B0290913C02A0913D02B0913E02E9
:1019600080933F0290934002A0934102B0934202C1
:1019700080913B0280FF1FC09E012F5F3F4F812F50
:101980009E2D0E94E70B80913F0210FB87F9809308
:101990003F021695809140028078812BE0FA87F90A
:1019A00080934002F0924102009342024B81698190
:1019B0008A810E948E0C0F900F900F90DF91CF9133
:1019C0001F910F91FF90EF9008950F931F93CF9366
:1019D000DF93EC01062F142F90913B0290FF43C040
:1019E000892F8E77823021F5CE010E949A0C80914A
:1019F0003B02C0FB87F980933B02C69580913C0275
:101A00008078C82BD0FBC7F9C0933C0200933D02FD
:101A100010933E0260913B0270913C0280913D0226
:101A200090913E02DF91CF911F910F910C94600C29
:101A3000892F86958F732EE3280F2F73243018F487
:101A400010913E02D4CF865C8F73893080F6991F47
:101A50009927991FD0913C02CD2FCC0FC92BD7FBD2
:101A6000DD27D0F9C4CFDF91CF911F910F91089559
:101A7000EBE3F2E02081221F2227221F30913C025B
:101A8000432F440F842F822B37FB992790F9089618
:101A900068E671E00E946B2A438162810C94E50C38
:101AA00020913B02221F2227221F30913C02432F0C
:101AB000440F842F822B37FB992790F988309105AA
:101AC00040F4805A9E4F40913E0260913D020C943A
:101AD000E50C089768E671E00E946B2AF4CF6091EC
:101AE0003D02683F90F4685F80913B02881F882721
:101AF000881F90913C02292F220F97FB992790F97C
:101B000040913E02822B0C94E50C6FEFEDCF60917B
:101B10003D02683090F0685080913B02881F882712
:101B2000881F90913C02292F220F97FB992790F94B
:101B300040913E02822B0C94E50C60E0EDCF409189
:101B40003E02483F90F4485F80913B02881F8827FF
:101B5000881F90913C02292F220F97FB992790F91B
:101B600060913D02822B0C94E50C4FEFEDCF40913C
:101B70003E02483090F0485080913B02881F8827F1
:101B8000881F90913C02292F220F97FB992790F9EB
:101B900060913D02822B0C94E50C40E0EDCF9091DA
:101BA0003B0290FF3BC09178811126C092609093D8
:101BB0003B0260913B0270913C0280913D0290910A
:101BC0003E020E94600C80913B02982F9E779230DB
:101BD000D9F410927401881F8827881F90913C02C5
:101BE000292F220F97FB992790F940913E0260918F
:101BF0003D02822B0C94E50C893110F09063D7CF15
:101C00008F73880F982BD3CF982F9695925C9F73E4
:101C1000963108F791E090937401DDCF089580919B
:101C20000E02816080930E0281E0809375010E9414
:101C3000001D811104C00E94DA1C0E94660C0E94E3
:101C40005C0C60933B0270933C0280933D02909346
:101C50003E026E7761F40E94660C0E945C0C6093F9
:101C60003B0270933C0280933D0290933E0281E0E0
:101C70008093740180913B0280FF04C086958F732E
:101C80000C94CF0D089580913B0286958F738F5FE2
:101C9000893108F081E00C94CF0D90913B02892F9F
:101CA0008E7F90FF816080933B0260913B02709138
:101CB0003C0280913D0290913E020E94600C809116
:101CC0003B0280FF04C086958F730C94CF0D109259
:101CD00074012FEF80E792E0215080409040E1F7BF
:101CE00000C000000C94790CCF93C82F8091720132
:101CF000909173010E94BB1DEC2FF0E0E854F84F67
:101D0000E491E817190609F010F50E94AF1D9093B1
:101D1000730180937201E0917101F0E0E454F84F97
:101D2000449180913B02881F8827881F90913C0234
:101D3000292F220F97FB992790F960913D02822B62
:101D40000E949A0C809171018F5F80937101CF91F5
:101D50000895CF93C82F80916F01909170010E94D8
:101D6000BB1DEC2FF0E0EB54F84FE491E817190697
:101D700009F0E8F40E94AF1D9093700180936F0109
:101D800040913E0260913D0280916D0190916E0103
:101D90000E949A0C80916D0190916E01019668E607
:101DA00071E00E94572A90936E0180936D01CF914C
:101DB0000895CF92DF92FF920F931F93CF93DF93FB
:101DC000F82E80916B0190916C010E94BB1DEF2D4C
:101DD000E695F0E0EB54F84FE491E817190609F0A6
:101DE000A8F50E94AF1D90936C0180936B0103E4F2
:101DF00012E0D0E0C0E088E6C82EDD24D3948091C4
:101E0000690190916A018C0F9D1FB6010E94572AAB
:101E1000980140913E0260913D020E94E70BA4961A
:101E20000D5F1F4FC83681E0D80749F70E94790C33
:101E30008091690190916A01F0FE10C00196BE0187
:101E40000E94572A90936A0180936901DF91CF9194
:101E50001F910F91FF90DF90CF9008950197F2CFDF
:101E6000AF92BF92CF92DF92EF92FF920F931F93A8
:101E7000CF93DF93C82FFF24FA9480FD02C0FF2484
:101E8000F39480916701909168010E94BB1DC695F3
:101E9000EC2FF0E0EE54F84FE491E817190611F03A
:101EA00008F053C00E94AF1D9093680180936701B2
:101EB000C3E4D2E010E000E097E0C92ED12C1982F3
:101EC00018821A8287E0A82EB12CE12C809166013D
:101ED0008E0D87FD865F082E000C990B08171907D9
:101EE000E9F420913E022A9DC0012B9D900D112402
:101EF000B6010E946B2A462F80913B02881F8827DB
:101F0000881F90913C02592F550F97FB992790F904
:101F10009E0160913D02852B0E94E70BEF0C81E052
:101F2000A81AB10899F60F5F1F4F23960A301105C2
:101F300031F60E94790C8091660191E0F91212C08D
:101F400081110EC089E080936601DF91CF911F91CE
:101F50000F91FF90EF90DF90CF90BF90AF900895DA
:101F60008150F1CF90E00196B8010E946B2AEBCF2F
:101F7000BF92CF92DF92EF92FF920F931F93CF9376
:101F8000DF93CDB7DEB76E970FB6F894DEBF0FBE06
:101F9000CDBF182F80916401909165010E94BB1DF7
:101FA000E12FF0E0E155F84FE491E817190611F040
:101FB00008F07AC00E94AF1D909365018093640180
:101FC0008E010F5F1F4FF12CE12C6801D801119693
:101FD0001C9211971C9212961C92B12C90910001A8
:101FE00080916301B99E800D11248A300CF089E044
:101FF00087FD80E0082E000C990BE816F906A1F485
:1020000080913B02881F8827881F90913C02592F9E
:10201000550F97FB992790F9980140913E026091E6
:102020003D02852B0E94E70BB394B7E0BB12D6CFDD
:10203000EFEFEE1AFE0A0D5F1F4FFAE0EF16F10404
:1020400029F623E432E009E010E05AE0E52EF12C15
:10205000C801B7010E946B2AFC01EE0FFF1FE80FB9
:10206000F91FEC0DFD1D8181D90111968C931197FB
:1020700080818C93828112968C930F5F1F4F2D5F0E
:102080003F4F0331110521F70E94790C9091000117
:10209000809163019130E1F48A3FB4F489EF809339
:1020A00063018FEF809300016E960FB6F894DEBF48
:1020B0000FBECDBFDF91CF911F910F91FF90EF9099
:1020C000DF90CF90BF900895815080936301ECCF53
:1020D00081312CF080E18093630181E0E3CF8F5F59
:1020E000F4CFCF93DF9380916101909162010E94C0
:1020F000BB1D883E934028F10E94AF1D9093620162
:102100008093610180915F019091600101968170DF
:1021100099279093600180935F01C3E4D2E09E0110
:1021200040913E0260913D0290E080E00E94E70B0A
:10213000239682E0C136D80791F7DF91CF910C94B6
:10214000790CDF91CF91089580917401882371F10A
:1021500080913B0286958F739EE3980F9F73943016
:1021600018F482500C94740E9AE3980F9F73933076
:1021700018F486500C94A90E97E3980F9F7396302D
:1021800018F489500C94D90E91E3980F9F739630F0
:1021900018F48F500C94300F9BE2980F9F7393307C
:1021A00018F485510C94B80F0C9471100895909305
:1021B0007B0180937A010895E0917A01F0917B018F
:1021C000309721F00190F081E02D099480E008958E
:1021D000E0917A01F0917B01309721F00280F38148
:1021E000E02D09940895E0917A01F0917B013097F8
:1021F00021F00480F581E02D099408952091780163
:10220000309179012817390771F090937901809303
:102210007801E0917A01F0917B01309721F00680FE
:10222000F781E02D0994089520917601309177018E
:102230002817390771F09093770180937601E09128
:102240007A01F0917B01309721F00084F185E02D37
:102250000994089508950C942A110E94A61D0E94C5
:10226000830A0E94771E0E94A8210C940F0E5F9291
:102270006F927F928F929F92AF92BF92CF92DF9296
:10228000EF92FF920F931F93CF93DF93CDB7DEB7FB
:102290002A970FB6F894DEBF0FBECDBF0E94E70AA3
:1022A0009DE7A92E91E0B92E10E000E088248394E8
:1022B000912C502E802F0E94A80B7C01F501C1901B
:1022C000D1905F01C816D90609F45EC080910E0254
:1022D00081FD0E94B10B90E080E0CE24DF24340128
:1022E000082E02C0660C771C0A94E2F7960126219C
:1022F0003721232B09F443C08E835F82E620F72029
:1023000081E0EF2809F480E088870E94AF1D81609A
:10231000782F9A8789874E815F8168858A850E9498
:10232000F111000F111FF801E358FE4F80819181D8
:1023300068267926718260820E94FA200E94DC1051
:1023400090917C018917B9F10E94DC1080937C0187
:102350002A960FB6F894DEBF0FBECDBFDF91CF91A6
:102360001F910F91FF90EF90DF90CF90BF90AF90B3
:102370009F908F907F906F905F900C94FD070196D7
:102380008E30910509F0ABCF0F5F1F4F0430110560
:1023900009F08FCF8FEF89838A831B820E94AF1D44
:1023A0008160782F9D838C8349815A816B818D81D7
:1023B0000E94F111C1CF2A960FB6F894DEBF0FBE6E
:1023C000CDBFDF91CF911F910F91FF90EF90DF90E4
:1023D000CF90BF90AF909F908F907F906F905F90C5
:1023E0000895CF93DF93CDB7DEB72B970FB6F89450
:1023F000DEBF0FBECDBF4F83588769877A878B8733
:102400001E821D8285E0FE013796DE011196019045
:102410000D928A95E1F749815A816B817C818D818A
:102420009E812B960FB6F894DEBF0FBECDBFDF9115
:10243000CF910C948E18882309F4D8C0823871F497
:102440000E94DC1081FDD2C089E30E94E31B0E9440
:10245000AB1C89E30E94201C0C94AB1C833859F4FC
:102460000E94DC1080FDC2C083E50E94E31B0E9435
:10247000AB1C83E5EFCF843859F40E94DC1082FD59
:10248000B5C087E40E94E31B0E94AB1C87E4E2CF47
:102490009CEF980F913A18F40E94E31BDDCF90E275
:1024A000980F983050F4877091E001C0990F8A9589
:1024B000EAF7892F0E94621CCFCF9BE5980F9330DB
:1024C00070F4853A31F0863A39F083E890E00C9464
:1024D000FE1081E890E0FBCF82E890E0F8CF98E52D
:1024E000980F953108F082C0883A09F440C0893AC3
:1024F00009F440C08A3A09F440C08B3A09F440C05C
:102500008C3A09F440C08B3B09F440C08C3B09F481
:1025100040C08D3A09F440C0803B09F440C08E3A77
:1025200009F440C08F3A09F440C0813B09F440C02F
:10253000823B09F440C0833B09F440C0843B09F46A
:1025400040C0853B09F440C0863B09F440C0873B4E
:1025500009F440C0883B09F440C0893B09F440C0FD
:102560008A3B09F440C090E080E00C94141182EEA4
:1025700090E0FBCF89EE90E0F8CF8AEE90E0F5CFC7
:1025800085EB90E0F2CF86EB90E0EFCF83EB90E02D
:10259000ECCF84EB90E0E9CF87EB90E0E6CF8CECDA
:1025A00090E0E3CF8DEC90E0E0CF83E891E0DDCFE9
:1025B0008AE891E0DACF82E991E0D7CF84E991E02F
:1025C000D4CF81E292E0D1CF83E292E0CECF84E219
:1025D00092E0CBCF85E292E0C8CF86E292E0C5CF11
:1025E00087E292E0C2CF8AE292E0BFCF08958823CB
:1025F00009F44BC0823871F40E94DC1081FF45C0A1
:1026000089E30E94E31B0E94AB1C89E30E94201C0B
:102610000C94AB1C833859F40E94DC1080FF35C049
:1026200083E50E94E31B0E94AB1C83E5EFCF843857
:1026300059F40E94DC1082FF28C087E40E94E31B4B
:102640000E94AB1C87E4E2CF9CEF980F913AF0F226
:1026500090E2980F983050F4877091E001C0990F84
:102660008A95EAF7892F0E94681CD2CF9BE5980FC4
:10267000933020F490E080E00C94FE10885A85316D
:1026800020F490E080E00C9414110895882321F048
:102690000E94621C0C94AB1C0895882321F00E94B8
:1026A000681C0C94AB1C08958F929F92AF92BF92BE
:1026B000DF92EF92FF920F931F93CF93DF937C01F2
:1026C000D62FC72FFC01058102950F7012811111C1
:1026D0000E94811C0E94DC1BD82E882371F01123DC
:1026E00021F180E28D0F883000F182E00E94C61B4C
:1026F0000E94DC1B91E0D82ED926EC2FE295EF70DA
:10270000F0E0EB57FC4E0C947F2A97139713E713D6
:10271000E71329144514C413C4135014C413E81444
:10272000E8145B156415C4138415D12CE6CF0C2F67
:102730000F70C07F11F00295007F1123A9F00023D4
:1027400059F080E28D0F883010F0D11109C0802F30
:102750000E94621C0E94AB1C8D2F0E941B1214C091
:10276000802F0E94731CF6CF8D2F0E94F71200233A
:1027700059F080E28D0F883010F0D11124C0802FE5
:102780000E94681C0E94AB1CDD2009F4C4C10E9499
:10279000B91B80FDC0C1F70112820E94B31B0E94C9
:1027A0002D1AC7010E9497150E94B31BDF91CF918C
:1027B0001F910F91FF90EF90DF90BF90AF909F908F
:1027C0008F900C944E1A802F0E94791CDBCFFC2F27
:1027D000FF70BF2EC07FC03219F0B29480EFB822D4
:1027E000DD2369F0D13029F1112369F1002359F07B
:1027F000F701858180FFB0CF8F70858304C01123DE
:1028000061F0011104C08B2D0E944613BDCF8B2DAA
:102810000130D1F70E94951CB7CF011106C00E946C
:10282000981C8B2D0E944D13AFCF013009F4ACCF13
:10283000F6CF112321F0063008F0A6CFE4CF053003
:1028400008F0A2CFEECF002361F38D2F0E94F71284
:102850009BCF8C2F86958695837069F0813009F027
:1028600093CF8D2F9C2F9370111102C090E080E0C8
:102870000E94141189CF8D2F9C2F9370111102C0CB
:1028800090E080E00E94FE107FCF8D2F112329F071
:102890000E9403200E94EF2077CF0E946B20FACF86
:1028A0008C2F837009F047C011116ECF2D2F229508
:1028B00026952770220F220F6D2F6F70862E912C78
:1028C000B12CA12C022E04C0880C991CAA1CBB1C84
:1028D0000A94D2F760E070E0CB01D4FF0FC06FE044
:1028E00070E080E090E004C0660F771F881F991F9A
:1028F0002A95D2F76095709580959095C695C69566
:10290000C370C23051F080F4682979298A299B2943
:10291000C13071F00E94D61937CF682979298A29E8
:102920009B290E94F21930CF0E94D619C501B4012B
:102930000E94BA1929CF8695112311F08C2F81702E
:10294000882309F421CF2D2F229526952770220F59
:10295000220F6D2F6F70862E912CB12CA12C022E80
:1029600004C0880C991CAA1CBB1C0A94D2F760E016
:1029700070E0CB01D4FF0FC06FE070E080E090E02A
:1029800004C0660F771F881F991F2A95D2F760959C
:10299000709580959095C695C695C370C23051F0DC
:1029A00080F4682979298A299B29C13071F00E9415
:1029B000B01AEACE682979298A299B290E94CC1A63
:1029C000E3CE0E94B01AC501B4010E94941ADCCE75
:1029D000E0E2ED0FE53108F062C0F0E0EE50FB4EB2
:1029E0000C947F2A071507150715071507150715F6
:1029F00007150715071507150715071507150715F7
:102A00000715071514152215291530153A15DF700D
:102A10008C2F8F71112321F00E942D1A8D2FF4CE4F
:102A20000E944E1A8D2FFECE112341F0053008F082
:102A3000ABCE8C2F8F710E94731AA6CE063008F091
:102A4000A3CEF7CF8C2F8F71112339F00E942D1A4E
:102A50009BCE8C2F8F711123C9F30E944E1A94CEF6
:102A6000112329F08C2F8F710E94181A8DCE0E948D
:102A70000E1A8ACE112349F0CF718C2F0E942D1A85
:102A800063E08C2F0E94BD1B7FCE81E00E94C61B9D
:102A9000023008F479CE82E00E94C61B75CE112365
:102AA00029F0011159CE8C2F8F71D0CF0111CDCECD
:102AB0008C2F8F71D2CF4C2F4F706D2FC7010E947A
:102AC000FD050E94371960CE11115ECECF70C23065
:102AD000A9F040F4CC2379F0C13009F055CE0E9422
:102AE000D12152CEC33069F0C43009F04DCE8D2FC4
:102AF0000E94202249CE0E94B92146CE0E94EA219E
:102B000043CE0E94FD2140CE4C2F4F706D2FC70148
:102B10000E94FF0739CEDF91CF911F910F91FF9057
:102B2000EF90DF90BF90AF909F908F9008950F939C
:102B30001F93CF93DF93EC01988189812B813C8196
:102B4000232B39F08F3F19F481E09F3F19F080E08B
:102B500001C081E080FD17C0CE010E941F068823BE
:102B600091F0688179818A810E948F1B8C010E947B
:102B7000E81A0E94AF19B801CE01DF91CF911F91E1
:102B80000F910C945413DF91CF911F910F910895E1
:102B90000E94811C0E94921C0E94541C0E94AB1C2B
:102BA0000E949C210E94EF2090E080E00E94FE1095
:102BB00090E080E00C9414110E94701C0C94C815D5
:102BC0000E94851BE92FE295EF70E250EE30E0F4B1
:102BD000F0E0E351FA4E0C947F2AFB15FB15041626
:102BE00004160616041604160416FB15FB150B1620
:102BF000041604160B16803F19F020F4803E20F4D2
:102C000081E00895843FE1F380E00895803EC0F3C1
:102C1000813FD1F7F5CF93FB882780F90895CF93B3
:102C2000DF9300D000D01F92CDB7DEB70F900F908A
:102C30000F900F900F90DF91CF910895CF93DF9376
:102C400000D000D000D0CDB7DEB726960FB6F894EE
:102C5000DEBF0FBECDBFDF91CF9108951F93CF93FD
:102C6000DF93C091860116E0809187018C1304C028
:102C7000DF91CF911F910895D0E01C9FF0011D9F1F
:102C8000F00D1124E857FE4F40815181628173811C
:102C9000848195810E941E162196C770E5CF4091D0
:102CA000B8015091B9016091BA017091BB01809156
:102CB000BC019091BD010C941E161F93CF93DF931E
:102CC0008091BD01807FD1F48091BA018823B1F059
:102CD00080918601D0918701B091B801C091B9016E
:102CE0004091BB015091BC01A1E0BF3F09F0A0E0C1
:102CF000BA016095709516E0D81304C0DF91CF91AA
:102D00001F91089521E04115510521F02A2FCF3F51
:102D100009F020E090E020FD38C0189FF001199FD5
:102D2000F00D1124E857FE4F21812C132EC0208175
:102D30002B132BC02281211128C023813481241719
:102D4000350700F1241B350B283C3105F0F42091A8
:102D5000BD012F7020612093BD0126E0289FF00166
:102D6000299FF00D1124E357FE4F80818F70806101
:102D7000808388EB91E00E949715DF91CF911F919E
:102D80000C942E16260F371FDFCF01968770B4CF15
:102D9000AF92BF92CF92DF92EF92FF920F931F9369
:102DA000CF93DF93CDB7DEB761970FB6F894DEBF50
:102DB0000FBECDBF8C0185E0F801DE011D960190AC
:102DC0000D928A95E1F7D8014C9111965C9111977B
:102DD0001296EC903091B8016091B9018091BB01DD
:102DE0009091BC0121E0009731F06F3F19F421E090
:102DF0003F3F09F020E0B22FB170BB2E20FD80C113
:102E0000F801C380D480A090BA01AA2009F427C198
:102E1000C816D906D0F1D601A81BB90BCD01FF24E5
:102E2000F394883C910508F0F12C8091BD01982F16
:102E3000907FFF2009F4CAC0911187C0FE2C651352
:102E400029C0341327C0E11025C08F7080618093A2
:102E5000BD010E944F1688EB91E00E94971580916A
:102E6000BD01F80185838F2D61960FB6F894DEBF02
:102E70000FBECDBFDF91CF911F910F91FF90EF90CB
:102E8000DF90CF90BF90AF900895809590958C0D76
:102E90009D1DC5CF81E0CD2831F05F3F19F481E061
:102EA0004F3F09F080E080FD24C081E08E25F82F9F
:102EB000F170DF2E80FF3FC0809186012091870155
:102EC00036E0821318C04D875E878D859E850E94EF
:102ED000851B292F22952F70223008F1243030F5E0
:102EE0009F7009F1D80115969C91907FE1F4FB2C1D
:102EF000BACF80E0DCCF90E0389FF001399FF00D31
:102F00001124E857FE4F6181561306C060814613B5
:102F100003C062816E110FC001968770D2CF9F707F
:102F200011F0882321F3805E883008F3C8010E94E5
:102F30009715BD2CDCCFEE2009F495CF8091BD0113
:102F400081608093BD01F12C8ECF651312C03413C4
:102F500010C0E1100EC0F8018583C8010E949715CA
:102F600086E0F801A8EBB1E001900D928A95E1F7B7
:102F700041C04D875E878D859E850E94E015882320
:102F800009F4C8C0EE2009F4C5C08091BD018032AB
:102F900070F02091B8013091B90138872F831986DC
:102FA000DB86CA868C87CE0107960E94971586E03D
:102FB000F801A8EBB1E001900D928A95E1F70E942B
:102FC0005D160E944F16FF24F3944DCF911115C04A
:102FD0007C2DD98AC88A6E2D89890E940F1688EBAC
:102FE00091E00E94971586E0E8EBF1E0DF011D9289
:102FF0008A95E9F70E944F1636CF651312C0341335
:1030000010C0E1100EC0F8018583C8010E94971519
:10301000E8EBF1E086E0DF011D928A95E9F7FA2CF2
:1030200022CF4D875E878D859E850E94E01588237F
:1030300009F470C0EE2009F46DC08091BD018032AA
:1030400008F4B5CF2091B8013091B9013A832983B2
:103050001B82DD82CC828E83CE010196A6CFC8165C
:10306000D90638F1F601E81BF90BCF01F12C883CA9
:10307000910508F03DC0FE2CEE2009F44BC065130D
:1030800026C0341324C08091BD0180FD17C0982F45
:10309000907FA1F0D80115968C931597903F09F475
:1030A0005CCF982F907F905F8F70892B15968C93B3
:1030B00054CF809590958C0D9D1DD8CF86E0F8015A
:1030C000A8EBB1E001900D928A95E1F7CCCE4D8747
:1030D0005E878D859E850E94E015811168CF809165
:1030E000BD0181608093BD01C8010E949715BBCED0
:1030F0007C2DD98AC88A6E2D89890E940F1673CFBC
:10310000EE2041F04D875E878D859E850E94E015FB
:1031100081114DCFC8010E94971555CF1F93CF93B2
:10312000DF93CDB7DEB72C970FB6F894DEBF0FBE96
:10313000CDBF4F83588769877A878B879C87CE015D
:1031400007960E94C816882309F442C09F8188858B
:103150002A853B85232B39F08F3F19F481E09F3F6F
:1031600019F080E001C081E080FD08C04F815885E2
:1031700069857A858B859C850E941E1616E0809154
:10318000860190918701891709F467C0819FC0016A
:10319000112488579E4F0E94C816882309F45DC0E9
:1031A000E09186011E9FF0011124E857FE4F4081F7
:1031B000518162817381848195810E941E16809164
:1031C000860190E001968770992780938601D7CF7A
:1031D00086E0FE013796DE01119601900D928A95E8
:1031E000E1F79F8188852A853B85232B39F08F3F26
:1031F00019F481E09F3F19F080E001C081E080FD7B
:10320000BDCF2091870130E0C901019687709927D1
:10321000409186014817190699F096E0929FD001D7
:10322000939FB00D1124A857BE4FFE013196019017
:103230000D929A95E1F7809387010E942E169ECFFA
:103240000E94DC15109287011092860186E0E8EB5F
:10325000F1E0DF011D928A95E9F72C960FB6F894FC
:10326000DEBF0FBECDBFDF91CF911F910895EF92CA
:10327000FF920F931F93CF93DF938C01892B81F0E3
:10328000F12CEE24E394E8012196F801849184372F
:1032900070F4843008F05FC08130B1F08230A1F169
:1032A000DF91CF911F910F91FF90EF900895853797
:1032B00009F44CC008F43DC09CE7980F903780F7A4
:1032C0008F770E94F71249C00E5F1F4FFE01849155
:1032D00090E2980F983060F48770FE2D01C0FF0FC8
:1032E0008A95EAF78F2F0E94841C0E94AB1C02C0B3
:1032F0000E941B128F2D815030F2EFE9FFE03197D1
:10330000F1F700C00000F7CF0E5F1F4FFE01849160
:1033100090E2980F983050F48770FE2D01C0FF0F97
:103320008A95EAF78F2F0E948A1CDFCF0E94F7123E
:10333000E1CF0E5F1F4FFE01C491C150D8F28FE95B
:103340009FE00197F1F700C00000F7CF0E5F1F4F1D
:10335000FE01F490CFCF0E941B128E01CBCF0895B7
:103360006093E5017093E6018093E7019093E80193
:103370000C94C8150F931F930091E5011091E6017D
:103380002091E7013091E801DC01CB01802B912BEA
:10339000A22BB32B8093E5019093E601A093E70164
:1033A000B093E8011F910F910C94C8150F931F93D0
:1033B0000091E5011091E6012091E7013091E801CB
:1033C000DC01CB0180239123A223B3238093E50169
:1033D0009093E601A093E701B093E8011F910F914C
:1033E0000C94C8150F931F930091E5011091E6010D
:1033F0002091E7013091E801DC01CB018027912782
:10340000A227B3278093E5019093E601A093E701FB
:10341000B093E8011F910F910C94C8151092E1012F
:103420001092E2011092E3011092E4010C94C8158D
:1034300041E050E060E070E004C0440F551F661F9B
:10344000771F8A95D2F74093E1015093E201609390
:10345000E3017093E4010C94C81541E050E060E092
:1034600070E004C0440F551F661F771F8A95D2F77E
:103470008091E1019091E201A091E301B091E4011A
:10348000842B952BA62BB72B8093E1019093E2011F
:10349000A093E301B093E4010C94C81541E050E01F
:1034A00060E070E004C0440F551F661F771F8A95C7
:1034B000D2F740955095609570958091E10190917B
:1034C000E201A091E301B091E40184239523A623B6
:1034D000B7238093E1019093E201A093E301B093BD
:1034E000E4010C94C81541E050E060E070E004C0D5
:1034F000440F551F661F771F8A95D2F78091E1010F
:103500009091E201A091E301B091E4018427952715
:10351000A627B7278093E1019093E201A093E301EE
:10352000B093E4010C94C8150F931F930091E1012F
:103530001091E2012091E3013091E401DC01CB0123
:10354000802B912BA22BB32B8093E1019093E2016E
:10355000A093E301B093E4011F910F910C94C8155F
:103560000F931F930091E1011091E2012091E3017B
:103570003091E401DC01CB0180239123A223B3230A
:103580008093E1019093E201A093E301B093E40101
:103590001F910F910C94C8150F931F930091E10197
:1035A0001091E2012091E3013091E401DC01CB01B3
:1035B00080279127A227B3278093E1019093E2010E
:1035C000A093E301B093E4011F910F910C94C815EF
:1035D00008952EE0929F800D1124982F977071E02E
:1035E00001C0770F9A95EAF786958695869525E02E
:1035F000829FC001112450E040E0A62FB0E0FC0102
:10360000E40FF51FE254FE4F60819D01042E02C0BD
:10361000369527950A94E2F72170219526272723CE
:10362000262720834F5F5F4F4530510541F70895AE
:103630002EE0929F800D1124982F97708695869585
:10364000869525E0829FA001112470E060E080E073
:10365000FA01E60FF71FE254FE4F208130E0092EF9
:1036600002C0369527950A94E2F721703327062E7B
:1036700001C0220F0A94EAF7822B6F5F7F4F6530FB
:10368000710531F70895BF92CF92DF92EF92FF92CA
:103690000F931F93CF93DF938C01C090E101D090E3
:1036A000E201E090E301F090E4018091E501909166
:1036B000E601A091E701B091E801C82AD92AEA2AD7
:1036C000FB2ACFE1D0E0BC2ED701C6010C2E04C0EE
:1036D000B695A795979587950A94D2F780FD0EC069
:1036E000219788F7B12C8B2DDF91CF911F910F91EE
:1036F000FF90EF90DF90CF90BF900895B8018C2F8E
:103700000E941C08019761F3EECFCF93DF93EC0189
:103710000E94431BBE01DF91CF910C941C081F93A4
:10372000CF93DF93EB0190918501992331F0CB0189
:10373000DF91CF911F910C94851B882379F0CB01E9
:103740000E94431B182F682FCE010E94E91ABE0168
:10375000812FDF91CF911F910C941C08CB010E9407
:10376000181B182FF4CF8091E901859585958595D3
:1037700008958091E9018770089598E0899F9001EC
:103780001124622B6093E9010C942D1A9091E901A8
:10379000809589238093E901282F277061F4282FD1
:1037A000082E000C330B9217130629F0859585958A
:1037B00085950C944E1A08959091E901977081E0D7
:1037C00009F480E00895909113019923E1F090911C
:1037D000650297FF18C0E82FE695E695E695EF316C
:1037E00039F12091010130910201E20FF32FF11D17
:1037F000877021E030E001C0220F8A95EAF78181CD
:10380000822B818308952091010130910201F901F9
:1038100032969FEF40E05191851751F09F3F19F488
:10382000511101C0942F4F5F4E31A9F79F3F09F40A
:103830000895290F311D97FD3A95F9018283089566
:10384000909113019923F1F09091650297FF1AC0AE
:10385000E82FE695E695E695EF3129F120910101F3
:1038600030910201E20FF32FF11D282F277081E024
:1038700090E001C0880F2A95EAF78095918189230D
:10388000818308952091010130910201F90132965E
:10389000205E3F4F9191891303C0DF0111971C9265
:1038A000E217F307B9F7089581E090E0E091010194
:1038B000F0910201E80FF91F108201968032910504
:1038C000A9F7089590910D02892B80930D02089518
:1038D000982F909580910D02892380930D02089571
:1038E00010920D02089590910C02892B80930C0286
:1038F0000895982F909580910C02892380930C0253
:10390000089510920C02089590910B02892B8093D8
:103910000B020895982F909580910B028923809334
:103920000B02089510920B0208958093EA01089506
:103930001092EA0108952091010130910201F901EC
:103940003196205E3F4F80E0919191118F5FE21799
:10395000F307D1F70895E0910101F0910201809100
:103960000D028083E0910101F0910201808190912C
:103970000C02892B8083E0910101F091020180818A
:1039800090910B02892B80839091EA01992361F039
:10399000E0910101F09102018081892B80830E94D6
:1039A0009B1C81111092EA0180910101909102010A
:1039B0000C94E8106DEE7EEF90E080E00E94B72A54
:1039C00060E082E090E00E94992A60E083E090E06D
:1039D0000E94992A60E084E090E00E94992A60E0C9
:1039E00085E090E00E94992A60E086E090E00E94E5
:1039F000992A40E050E0BA0188E090E00C94AB2AAC
:103A000090E080E00E94932A21E08D3E9E4F09F0D5
:103A100020E0822F089582E090E00C94852A682FA0
:103A200082E090E00C94992A83E090E00C94852A3F
:103A3000682F83E090E00C94992A84E090E00C9445
:103A4000852A682F84E090E00C94992A86E090E023
:103A50000C94852A682F86E090E00C94992A809136
:103A60006C02843051F110920F0288E190E020E462
:103A70000FB6F894A895809360000FBE2093600065
:103A800080E00E94C80780E00E94FD0783B7817F25
:103A9000846083BF83B7816083BF7894889583B740
:103AA0008E7F83BF0FB6F894A895809160008861DF
:103AB00080936000109260000FBE089508950895ED
:103AC000CF930E945E1D0E94E70A0E945F1DC0E026
:103AD0008C2F0E94A80B892B31F4CF5FC430C1F723
:103AE00080E0CF91089581E0FCCF0E94DC150E9418
:103AF000A8210E94DC100C94FD071F920F920FB6B4
:103B00000F9211248F939F93AF93BF9380910F02D5
:103B1000811113C08091610290916202A0916302B1
:103B2000B09164024196A11DB11D809361029093F2
:103B30006202A0936302B0936402BF91AF919F9120
:103B40008F910F900FBE0F901F90189582E084BD4B
:103B500093E095BD9AEF97BD80936E0008952FB7BF
:103B6000F8948091610290916202A0916302B091F9
:103B700064022FBF0895CF92DF92EF92FF920F93CE
:103B80001F932FB7F89440916102509162026091A7
:103B90006302709164022FBF6A017B01EE24FF244F
:103BA0008C0130E020E0C016D106E206F30650F0AA
:103BB000481B590BCA011F910F91FF90EF90DF90A6
:103BC000CF90089541505109F3CF1F920F920FB635
:103BD0000F9211248F939F93AF93BF9380916102B3
:103BE00090916202A0916302B09164020196A11DBE
:103BF000B11D8093610290936202A0936302B0931F
:103C00006402BF91AF919F918F910F900FBE0F9063
:103C10001F9018950E942B26F8942FEF87EA91E6C3
:103C2000215080409040E1F700C0000087E090EB19
:103C3000DC018093750290937602A0937702B09393
:103C4000780288E19CE00FB6F894A8958093600014
:103C50000FBE90936000FFCFAF92BF92CF92DF92E2
:103C6000EF92FF920F931F93CF93C0E0CC24C394A5
:103C7000D12CE82EF12C8C2F0E94A80B5C0110E0B7
:103C800000E0C601002E02C0880F991F0A94E2F7D7
:103C90008A219B21892B99F40F5F1F4F0E3011054C
:103CA00081F7CF5FC43039F780E0CF911F910F913A
:103CB000FF90EF90DF90CF90BF90AF900895602F6E
:103CC0007C2F80E00E940008E816F90629F781E0C1
:103CD000ECCFCF93C82F8CE20E942C1E882321F0BA
:103CE0008C2FCF910C942C1E80E0CF910895CF9310
:103CF0000E94001D811102C00E94DA1CC5E608C0A6
:103D00000E94E70A8FE39CE90197F1F700C00000E9
:103D1000C150B1F789E20E94691E8111EFC08AE2A9
:103D20000E94691E81110E94DA1C85E00E94691EB2
:103D300081110E940A1E0E940B1D80930E0287E0D3
:103D40000E94691E882371F08BE10E94691E8823FE
:103D500009F4B1C090910E02892F8D7F91FF82608E
:103D600080930E0280910E020E940F1D0E941D1D65
:103D700090E0909366028093650280EE0E94691E37
:103D8000882341F090916502892F8E7F90FF81609A
:103D90008093650289E30E94691E882341F0909117
:103DA0006502892F8D7F91FF82608093650282EE8C
:103DB0000E94691E882341F090916502892F8B7FB4
:103DC00092FF84608093650286EE0E94691E8823BC
:103DD00041F090916502892F877F93FF88608093DF
:103DE000650283EE0E94691E882341F0909165026E
:103DF000892F8F7E94FF80618093650285E30E9406
:103E0000691E882341F090916502892F8F7D95FF6F
:103E100080628093650281E30E94691E882341F0DD
:103E200090916502892F8F7B96FF80648093650255
:103E300081E10E94691E882341F090916502892FDB
:103E400097FB87F9805880936502809165020E94F4
:103E5000211D87E20E94691EC82F8EE10E94691E03
:103E60008111C2608FE10E94691E8111C46080E2ED
:103E70000E94691E8111C86081E20E94691E811141
:103E8000C06182E20E94691E8111C06283E20E94C9
:103E9000691E8111C06484E20E94691E882341F179
:103EA000C0688C2F0E94181D6C2F70E090E080E09D
:103EB000CF910C94B0198EE00E94691E882339F0CE
:103EC00090910E02892F8B7F92FF846049CF80E111
:103ED0000E94691E90910E02882329F0892F877F06
:103EE00093FF88603DCF892F8E7F90FF816038CF10
:103EF000C111D7CF0E94141D682FD7CFCF9108953D
:103F00008091120280FF12C06091060185E0689FD7
:103F1000B0011124759567957595679560387105A1
:103F2000A8F561157105A1F1862F089581FF09C0DB
:103F30006091060185E0689FB00111247595679531
:103F4000EDCF82FF07C06091060185E0689FB00158
:103F50001124E4CF209113022223A9F090910501AE
:103F60006091060185E0689FB00111242917B0F621
:103F7000269FA001279F500D1124692F70E0CA01D0
:103F80000E946B2ACBCF65E070E0CECF8FE708951B
:103F900081E008958091120280FF0CC060910401BD
:103FA00070E075956795759567956115710549F18F
:103FB000862F089581FF06C06091040170E0759519
:103FC0006795F3CF6091040182FD0BC090911302BD
:103FD0009923A1F06091030180910401961738F0B4
:103FE000682F70E06038710500F38FE70895899FAE
:103FF000C001112470E00E946B2AF4CF61E070E0F0
:10400000D7CF81E00895803F31F40E94801F8195D1
:10401000809316020895813F19F40E94801FF8CF03
:10402000823F31F40E94801F81958093150208958C
:10403000833F19F40E94801FF8CF893F29F40E9422
:10404000CA1F8093170208958A3F21F40E94CA1F55
:104050008195F7CF8B3F31F40E94CA1F81958093E1
:10406000180208958C3F19F40E94CA1FF8CF843FAC
:1040700031F4809114028160809314020895853F89
:1040800021F4809114028260F7CF863F21F4809161
:1040900014028460F1CF873F21F48091140288607C
:1040A000EBCF883F21F4809114028061E5CF8D3FF2
:1040B00031F48091120281608093120208958E3F44
:1040C00021F4809112028260F7CF8F3FB9F780917F
:1040D00012028460F1CF803FC1F48091160287FD07
:1040E000109216028091150281110EC08091160265
:1040F00081110AC080911702811106C080911802B7
:10410000811102C0109213020895813F29F4809119
:10411000160218162CF3E6CF90911502823F29F46F
:1041200097FFE0CF10921502DDCF833F19F41916E7
:10413000CCF3D8CF893F39F480911702181694F642
:1041400010921702CFCF8A3F29F48091170287FF80
:10415000C9CFF6CF8B3F39F48091180287FFC2CFC9
:1041600010921802BFCF8C3F29F4809118021816C4
:10417000BCF3B8CF843F31F4809114028E7F8093DA
:104180001402B0CF853F21F4809114028D7FF7CFC8
:10419000863F21F4809114028B7FF1CF873F21F479
:1041A00080911402877FEBCF883F21F48091140225
:1041B0008F7EE5CF8D3F31F4809112028E7F809308
:1041C000120290CF8E3F21F4809112028D7FF7CFA3
:1041D0008F3F09F087CF809112028B7FF0CF84E16F
:1041E00092E00E94F3100E94AF1D90931102809301
:1041F000100208951F93CF93DF9380911002909146
:1042000011020E94BB1DAC01909113022091070185
:1042100030E0911106C0209108018AE0289F9001AA
:1042200011244217530780F080911502C0911602A5
:1042300010911702D091180281110AC0C11178C0E3
:10424000111176C0D11174C0DF91CF911F910895E3
:104250009F3F19F09F5F90931302181624F40E9459
:10426000801F809315028091150287FF05C00E9470
:10427000801F8195809315021C1624F40E94801FD4
:10428000809316028091160287FF05C00E94801F4E
:1042900081958093160260911502662331F1C091D9
:1042A0001602CC2311F1062E000C770B880B990B0C
:1042B0000E945E2923E333E343E35FE30E94C229C4
:1042C0000E942629609315026C2FCC0F770B880B68
:1042D000990B0E945E2923E333E343E35FE30E94EB
:1042E000C2290E94262960931602111624F40E9406
:1042F000CA1F809317028091170287FF05C00E9492
:10430000CA1F8195809317021D1624F40E94CA1FAC
:10431000809318028091180287FF05C00E94CA1F6F
:10432000819580931802DF91CF911F910C94EF201B
:104330009F3F09F08FCFA0CF85E0E4E1F2E0DF01FD
:104340001D928A95E9F710921302109212020895B5
:104350000E94001D811102C00E94DA1C0E94261DCD
:104360008093670280FF03C086950C94C80780E0A5
:10437000FCCF80916702982F9695953030F49F5F1F
:10438000990F8170892B8093670280916702816009
:10439000809367020E942A1D8091670286950C9483
:1043A000C80780916702982F9E7F79F08250809392
:1043B00067028E7F91E009F490E08091670290FBA4
:1043C00080F9809367020E942A1D8091670286957A
:1043D0000C94C80790916702892F8E7F90FF8160AF
:1043E000809367020E942A1D8091670280FF03C0AC
:1043F00086950C94C80780E0FCCF90916702892FC6
:1044000086958F5F8F7791708630B8F4880F892BEF
:1044100080936702809167028E7F91E009F490E0BB
:104420008091670290FB80F9809367020E942A1DA9
:104430008091670286950C94C80790936702EACF33
:1044400090916702292F26958227880F9170982BCB
:10445000909367029E7F21E009F420E0809167023B
:1044600020FB80F9809367020E942A1D80916702D9
:1044700086950C94C807809139020895CF93DF93F5
:1044800000D01F92CDB7DEB79C0180916C028430C2
:1044900019F593E099833B832A839093E9008FEF8A
:1044A0009091E800815095FD06C095ED9A95F1F741
:1044B00000008111F5CF8091E80085FF0DC050E02C
:1044C00040E063E070E0CE0101960E949B24809161
:1044D000E8008E778093E8000F900F900F90DF91A7
:1044E000CF910895CF93DF9300D01F92CDB7DEB761
:1044F00020916C02243031F522E029838058910903
:104500009B838A8383E08093E9008FEF9091E8009A
:10451000815095FD06C095ED9A95F1F70000811147
:10452000F5CF8091E80085FF0DC050E040E063E0EA
:1045300070E0CE0101960E949B248091E8008E7766
:104540008093E8000F900F900F90DF91CF91089526
:104550009C0180916C028430F9F482E08093E90040
:104560009FEF8091E800915085FD06C085ED8A950A
:10457000F1F700009111F5CF8091E80085FF0CC0A4
:1045800050E040E065E070E0C9010E949B2480910A
:10459000E8008E778093E8000895CF93DF93EC01D5
:1045A00080916C028430F1F4909113019923E9F029
:1045B0009091650297FF19C08093E9008FEF909169
:1045C000E800815095FD06C095E19A95F1F700004D
:1045D0008111F5CF8091E80050E040E060E270E0AA
:1045E00085FD1AC0DF91CF91089581E08093E900A5
:1045F0008FEF9091E800815095FD06C095ED9A955A
:10460000F1F700008111F5CF8091E80085FFEACF36
:1046100050E040E068E070E0CE010E949B24809171
:10462000E8008E778093E80080E2FE01A9E1B2E025
:1046300001900D928A95E1F7D5CF80916B0281119F
:1046400009C00E942B260E9488268091E200846087
:104650008093E200089510926B02089508950895E2
:104660000C94751D42E061EC81E00E94A92542E0B6
:1046700061EC82E00E94A92542E061EC83E00E94A7
:10468000A92542E261EC84E00C94A92580916E0298
:10469000833009F455C030F4813071F1823009F46F
:1046A00091C008958A3009F47DC08B3009F463C04D
:1046B000893009F044C080916D02813209F03FC019
:1046C0008091710290917202009711F00397B9F5F1
:1046D0008091E800877F8093E8008091E80082FF66
:1046E0002AC08091F100809339028091E8008B7795
:1046F0008093E8000C94DD2580916D02813AF9F4F5
:104700008091E800877F8093E8008091710290910A
:104710007202892B61F460E289E192E070E00E940C
:10472000EA248091E8008B778093E800089560E0A8
:1047300090E080E0F3CF80916C028111CECF08959C
:1047400080916D02813AD9F7809171029091720245
:10475000892BA9F78091E800877F8093E8008091FA
:10476000E80080FFFCCF809113018093F1008091DD
:10477000E8008E77BDCF80916D02813201F7809184
:10478000710290917202892BD1F68091E800877FA7
:104790008093E8000E94DD2580916F0280931301D1
:1047A0000C94DC1580916D02813249F68091E8000D
:1047B000877F8093E8000E94DD25809170028093BE
:1047C0003A02089580916D02813A09F0B8CF809144
:1047D000E800877F8093E8008091E80080FFFCCFAD
:1047E00080913A02C2CF84B7877F84BF0FB6F89416
:1047F000A8958091600088618093600010926000AD
:104800000FBE80E880936100109261000E942B111E
:104810000E942B260E9488268091E200846080936B
:10482000E20078940E940A290E942D1189E091E00B
:104830000E94D71080916C02853029F00E943711B8
:104840000E94A410F7CF0E942F1D80916A02882336
:1048500089F30E94601D882369F30E948524EACFB2
:10486000292F33272330310579F158F421303105D0
:10487000F1F02230310519F190E080E030E020E0E5
:104880001AC02132310599F122323105A9F764307D
:1048900098F770E0FB01EE0FFF1FE65DFE4F2081F1
:1048A00031816A5D7E4FFB01808190E004C082E12E
:1048B00090E029E53AE0FA013183208308958DE6FE
:1048C00090E02CEE39E0F7CF99278130910561F027
:1048D00028F0029789F6ECEBF9E002C0E8EEF9E087
:1048E000849190E09F01E7CFE0EDF9E0F9CF6430EB
:1048F00008F0C2CFE62FF0E0EE0FFF1FEE5CFE4F98
:104900002081318189E090E0D6CF80E189BD82E1CC
:1049100089BD09B400FEFDCF8091D8008F7D8093C2
:10492000D8008091E00082608093E0008091E000F8
:1049300081FDFCCF0895AF92BF92CF92DF92FF929C
:104940000F931F93CF93DF936C01EB018A010E94B9
:10495000FC25F82E811123C00115110539F0F8014D
:1049600080819181C81BD90BC80ED91EB12CA12CF6
:104970002097A9F08091E80085FD22C08091E80091
:104980008E778093E80001151105A1F0F801808170
:104990009181A80EB91EB182A08285E0F82E8F2DDC
:1049A000DF91CF911F910F91FF90DF90CF90BF903B
:1049B000AF9008950E94FC258823D1F2F82EEFCF06
:1049C000F60181916F018093F1002197FFEFAF1AFB
:1049D000BF0ACECFFC0180917302909174028617BA
:1049E0009707A0F06115710529F49091E8009E7772
:1049F0009093E80090E06115710551F4911108C0A1
:104A00008091E80082FF35C080E00895BC01F2CFBC
:104A100080916C028823C9F18530C9F18091E8004A
:104A200083FD31C08091E80082FDEACF8091E800EB
:104A300080FFE1CF2091F3008091F200322F282FE8
:104A40006115710519F02830310558F091E02830D2
:104A5000310509F090E02091E8002E772093E800DE
:104A6000CACF81918093F100615071092F5F3F4F50
:104A7000E7CF80916C02882341F0853041F080912E
:104A8000E80083FFBDCF81E0089582E0089583E0D0
:104A90000895FC0180917302909174028617970724
:104AA000A0F06115710529F48091E8008E7780935C
:104AB000E80090E06115710551F4911108C08091F2
:104AC000E80082FF36C080E00895BC01F2CF8091FB
:104AD0006C028823D1F18530D1F18091E80083FD0B
:104AE00032C08091E80082FDEACF8091E80080FF2B
:104AF000E1CF2091F3008091F200322F282F611531
:104B0000710519F02830310558F091E02830310551
:104B100009F090E08091E8008E778093E800CACF9A
:104B200084918093F1003196615071092F5F3F4F5E
:104B3000E6CF80916C02882341F0853041F080916E
:104B4000E80083FFBCCF81E0089582E0089583E010
:104B50000895982F973028F08F708093E90081E0B6
:104B600008959093E900242F762F50E0981731F0A4
:104B70007091EC002091ED005091F00021FD02C0F9
:104B80009F5FE8CF3091EB003E7F3093EB00309198
:104B9000ED003D7F3093ED003091EB0031603093BC
:104BA000EB007093EC002093ED005093F000209107
:104BB000EE0027FDE5CF80E0089580916D0287FF2C
:104BC00013C08091E80082FF06C08091E8008B77D7
:104BD0008093E80004C080916C028111F2CF0895A7
:104BE00080916C028823D9F38091E80080FFF8CF90
:104BF0008091E8008E77ECCF2091E4003091E500C1
:104C000085E69091EC0090FF06C09091E80090FF3F
:104C100006C080E008959091E80092FDFACF90914F
:104C20006C02992391F0953091F09091EB0095FDF5
:104C300010C04091E4005091E5002417350709F3B6
:104C400081509A01F1F684E0089582E0089583E0AE
:104C5000089581E008950E9499260E94A126E0EE21
:104C6000F0E0808181608083E8EDF0E080818F77E3
:104C7000808319BCA7EDB0E08C918E7F8C938081EE
:104C80008F7E808310926B0208950F931F93CF93B2
:104C9000DF930E9499260E94A126C8EDD0E088816A
:104CA0008F77888388818068888388818F7D8883D7
:104CB00019BC10926C021092680210926A02109253
:104CC000690200EE10E0F80180818B7F808388818B
:104CD0008160888342E060E080E00E94A925E1EEE7
:104CE000F0E080818E7F8083E2EEF0E08081816061
:104CF0008083808188608083F80180818E7F8083BB
:104D0000888180618883DF91CF911F910F910895F1
:104D1000E8EDF0E080818F7E8083E7EDF0E0808138
:104D20008160808384E082BF81E080936B020C9479
:104D30004526E8EDF0E080818E7F80831092E200CE
:104D400008951092DA001092E10008951F920F92D8
:104D50000FB60F9211242F933F934F935F936F934E
:104D60007F938F939F93AF93BF93EF93FF93809124
:104D7000E10082FF0BC08091E20082FF07C08091BA
:104D8000E1008B7F8093E1000E9409298091DA0085
:104D900080FF19C08091D80080FF15C08091DA0093
:104DA0008E7F8093DA008091D90080FF94C080E1EB
:104DB00089BD82E189BD09B400FEFDCF81E0809309
:104DC0006C020E941D238091E10080FF19C0809138
:104DD000E20080FF15C08091E2008E7F8093E200A8
:104DE0008091E20080618093E2008091D80080622F
:104DF0008093D80019BC85E080936C020E942F2319
:104E00008091E10084FF29C08091E20084FF25C0E9
:104E100080E189BD82E189BD09B400FEFDCF8091AA
:104E2000D8008F7D8093D8008091E1008F7E8093A1
:104E3000E1008091E2008F7E8093E2008091E200A9
:104E400081608093E20080916802882309F449C060
:104E500084E080936C020E9430238091E10083FF04
:104E600029C08091E20083FF25C08091E100877F07
:104E70008093E10082E080936C021092680280913E
:104E8000E1008E7F8093E1008091E2008E7F80932D
:104E9000E2008091E20080618093E20042E060E005
:104EA00080E00E94A9258091F00088608093F00046
:104EB0000E942E23FF91EF91BF91AF919F918F910F
:104EC0007F916F915F914F913F912F910F900FBE06
:104ED0000F901F90189519BC10926C020E942B2302
:104EE00072CF8091E30087FD02C081E0B2CF83E002
:104EF000B0CF1F920F920FB60F9211242F933F93B2
:104F00004F935F936F937F938F939F93AF93BF93D1
:104F1000CF93EF93FF93C091E900CF708091EC00A5
:104F20001092E9008091F000877F8093F0007894E0
:104F30000E94B5271092E9008091F000886080936C
:104F4000F000C093E900FF91EF91CF91BF91AF9135
:104F50009F918F917F916F915F914F913F912F9191
:104F60000F900FBE0F901F9018951F93CF93DF9354
:104F7000CDB7DEB7AA970FB6F894DEBF0FBECDBF90
:104F8000EDE6F2E08091F100819322E0E537F2074F
:104F9000C9F70E9446238091E80083FF42C08091B8
:104FA0006D0290916E029A3008F03BC0E92FF0E05C
:104FB000E452F84D0C947F2AE6270A2811280A2883
:104FC0001128652887281128DC28E928803879F0FD
:104FD000823839F5809171028F708093E900809159
:104FE000EB0085FB882780F91092E90006C08091CC
:104FF000690290916A02911182609091E800977F16
:105000009093E8008093F1001092F1008091E80005
:105010008E772DC0282F2D7F21F48823D1F0823068
:1050200059F18091E80083FF0AC08091E800877FF2
:105030008093E8008091EB0080628093EB00AA9659
:105040000FB6F894DEBF0FBECDBFDF91CF911F9199
:10505000089580916F02813021F7933009F080E04C
:1050600080936A021092E9008091E800877F809324
:10507000E8000E94DD25D5CF80916F028111F2CF2B
:10508000809171028F7069F28093E9002091EB00AA
:1050900020FFE8CF933031F48091EB008062809361
:1050A000EB00E0CF9091EB0090619093EB0021E05A
:1050B00030E001C0220F8A95EAF72093EA001092AF
:1050C000EA008091EB008860EACF8111AACF1091AD
:1050D0006F021F778091E3008078812B8093E3003B
:1050E0008091E800877F8093E8000E94DD25809111
:1050F000E80080FFFCCF8091E30080688093E300AC
:1051000083E0111101C082E080936C028ACF805845
:10511000823008F086CF80916F02909170028C3DB2
:1051200023E09207A1F583E08A838AE289834FB75F
:10513000F894DE01139620E03EE051E2E32FF0E028
:1051400050935700E49120FF03C0E295EF703F5F5A
:10515000EF708E2F90E0EA30C0F0C7968D939D934C
:105160002F5F243159F74FBF8091E800877F8093EC
:10517000E8006AE270E0CE0101960E94EA24809184
:10518000E8008B778093E8004CCFC096E7CFAE0164
:105190004F5F5F4F609171020E943024BC01892BE8
:1051A00009F43FCF9091E800977F9093E8008981C0
:1051B0009A810E944925E3CF803809F032CF80914F
:1051C000E800877F8093E800809168028093F10077
:1051D0001DCF811126CF90916F02923008F021CF20
:1051E0008091E800877F8093E800909368020E9496
:1051F000DD2580916802882331F084E080936C0281
:105200000E9432230ECF8091E30087FDF6CF81E02C
:10521000F5CF0895CF9380916C02882399F0C091C7
:10522000E900CF708091EC0080FD0EC080E0C82BBB
:105230001092E9008091E80083FD0E94B527CF70AD
:10524000C093E900CF91089580E8F1CF0E942D2905
:105250006894B1110C94BC2908950E94A12988F08A
:105260009F5798F0B92F9927B751B0F0E1F0660F2A
:10527000771F881F991F1AF0BA95C9F714C0B1306B
:1052800091F00E94BB29B1E008950C94BB29672FCF
:10529000782F8827B85F39F0B93FCCF3869577959A
:1052A0006795B395D9F73EF4909580957095619583
:1052B0007F4F8F4F9F4F0895E89409C097FB3EF4AE
:1052C00090958095709561957F4F8F4F9F4F992353
:1052D000A9F0F92F96E9BB279395F69587957795D1
:1052E0006795B795F111F8CFFAF4BB0F11F460FF91
:1052F0001BC06F5F7F4F8F4F9F4F16C0882311F0E9
:1053000096E911C0772321F09EE8872F762F05C0FC
:10531000662371F096E8862F70E060E02AF09A9597
:10532000660F771F881FDAF7880F9695879597F98C
:10533000089557FD9058440F551F59F05F3F71F085
:105340004795880F97FB991F61F09F3F79F08795EC
:105350000895121613061406551FF2CF4695F1DF75
:1053600008C0161617061806991FF1CF8695710505
:10537000610508940895E894BB2766277727CB0139
:1053800097F908950E94D5290C94462A0E94382A3C
:1053900038F00E943F2A20F0952311F00C942F2A18
:1053A0000C94352A11240C94BC290E94992970F37D
:1053B000959FC1F3950F50E0551F629FF001729FBA
:1053C000BB27F00DB11D639FAA27F00DB11DAA1FC9
:1053D000649F6627B00DA11D661F829F2227B00D16
:1053E000A11D621F739FB00DA11D621F839FA00DA1
:1053F000611D221F749F3327A00D611D231F849FF1
:10540000600D211D822F762F6A2F11249F57504047
:105410009AF0F1F088234AF0EE0FFF1FBB1F661FC2
:10542000771F881F91505040A9F79E3F510580F08B
:105430000C942F2A0C94BC295F3FE4F3983ED4F3DC
:10544000869577956795B795F795E7959F5FC1F72F
:10545000FE2B880F911D9695879597F9089597F9DA
:105460009F6780E870E060E008959FEF80EC08950A
:1054700000240A9416161706180609060895002433
:105480000A9412161306140605060895092E0394AD
:10549000000C11F4882352F0BB0F40F4BF2B11F421
:1054A00060FF04C06F5F7F4F8F4F9F4F0895AA1B0F
:1054B000BB1B51E107C0AA1FBB1FA617B70710F0FF
:1054C000A61BB70B881F991F5A95A9F78095909531
:1054D000BC01CD01089597FB072E16F4009407D068
:1054E00077FD09D00E94572A07FC05D03EF490951D
:1054F00081959F4F0895709561957F4F0895EE0FA8
:10550000FF1F0590F491E02D0994F999FECF92BD0B
:1055100081BDF89A992780B50895A6E1B0E044E0EE
:1055200050E00C94BF2AA8E1B0E042E050E00C94B7
:10553000BF2A262FF999FECF92BD81BDF89A019717
:1055400000B4021639F01FBA20BD0FB6F894FA9ACB
:10555000F99A0FBE08950396272F0E949A2A0E9457
:10556000992A252F0E949A2A242F0C949A2A019670
:10557000272F0E949A2A0C94992ADC01CB01FC0166
:10558000F999FECF06C0F2BDE1BDF89A319600B49C
:0E5590000D9241505040B8F70895F894FFCFA7
:10559E00FFEB012808140A321E3B22CD22A82272EC
:1055AE00223E22019194F0F1F4F5F6F796973435F8
:1055BE00366695939290404D3639270BDA0AA40A37
:0A55CE006B0AFE09170A300A490AA9
:00000001FF
